S0160000426561636F6E5F5842595F4B36302E7372656364
S3151FFF0000708200201104FF1F2104FF1F8FA6FF1FF1
S3151FFF00102104FF1F2104FF1F2104FF1F00000000F3
S3151FFF00200000000000000000000000002104FF1F69
S3151FFF00302104FF1F000000002104FF1F01B7FF1F40
S3151FFF0040218EFF1F378EFF1F4D8EFF1F638EFF1FD4
S3151FFF0050798EFF1F8F8EFF1FA58EFF1FBB8EFF1F64
S3151FFF0060D18EFF1FE78EFF1FFD8EFF1F138FFF1FF3
S3151FFF0070298FFF1F3F8FFF1F558FFF1F6B8FFF1F80
S3151FFF00802104FF1F2104FF1F2104FF1F2104FF1F40
S3151FFF00902104FF1F2104FF1F2104FF1F2104FF1F30
S3151FFF00A0D1AEFF1F2BAFFF1FA99DFF1F539EFF1F24
S3151FFF00B0FD9EFF1F23A3FF1F2BA3FF1F33A3FF1F9F
S3151FFF00C041A3FF1F4BA3FF1F55A3FF1F57A3FF1FD0
S3151FFF00D059A3FF1F5BA3FF1F63A3FF1F6BA3FF1F76
S3151FFF00E079A3FF1F83A3FF1FA9A3FF1FABA3FF1F98
S3151FFF00F0ADA3FF1F0585FF1F2104FF1F3585FF1FAB
S3151FFF01002104FF1F6585FF1F2104FF1F9585FF1F05
S3151FFF01102104FF1FC585FF1F2104FF1FF585FF1F35
S3151FFF01202104FF1F5B77FF1F6577FF1F2104FF1F3B
S3151FFF01302104FF1F2104FF1F855FFF1F8F5FFF1F07
S3151FFF0140995FFF1F2104FF1F0DB1FF1F0000000056
S3151FFF01506351FF1F7951FF1F8F51FF1FA551FF1FAF
S3151FFF01601DB0FF1F11B7FF1F2104FF1FE9AFFF1FA1
S3151FFF0170C3AFFF1F9DAFFF1FFFAFFF1F2104FF1F52
S3151FFF01802104FF1FDDADFF1F47AEFF1F9DB0FF1FE2
S3151FFF01902104FF1FD168FF1F2104FF1F7F2BFF1F96
S3151FFF01A0912BFF1FA32BFF1FB52BFF1FC72BFF1F57
S3151FFF01B02104FF1F2104FF1F2D98FF1F2104FF1F6F
S3151FFF01C02104FF1F2104FF1F2104FF1F2104FF1FFF
S3151FFF01D02104FF1F2104FF1F2104FF1F2104FF1FEF
S3151FFF01E099A6FF1F99A6FF1F99A6FF1F99A6FF1F77
S3151FFF01F099A6FF1F99A6FF1F99A6FF1F99A6FF1F67
S3091FFF040000000000D4
S3151FFF0410014880470148004775A5FF1F49A9FF1FD0
S3091FFF04200AF03AB9C7
S3151FFF0424002004E0491CB1F57A6FFBD3401CB0F5DD
S3151FFF0434C87F01D20021F6E7704780B501F0C6FADF
S3151FFF0444C0B200281DD0FFF7EBFF01F0BFFAC0B201
S3151FFF0454052801D1052015E0C0B2012801D10120CD
S3151FFF046410E0C0B2022801D102200BE0C0B203285C
S3151FFF047401D1032006E0C0B2042801D1042001E004
S3151FFF048400E0002002BD10B5040001F0C9FADFF831
S3151FFF0494A408B0F900002080DFF89808B0F902001D
S3151FFF04A46080DFF89008B0F90400A080DFF88408A5
S3151FFF04B4B0F90600E080DFF87C08B0F90800208158
S3151FFF04C4DFF87008B0F90A006081DFF86808B0F931
S3151FFF04D40C00A081DFF85C08B0F90E00E081DFF89D
S3151FFF04E45408B0F910002082DFF84808B0F912004B
S3151FFF04F46082DFF84008B0F91400A082DFF83408E1
S3151FFF0504B0F91600E082DFF82C08B0F91800208333
S3151FFF0514DFF82008B0F91A006083DFF81808B0F96E
S3151FFF05241C00A083DFF80C08B0F91E00E083DFF878
S3151FFF05340408B0F920002084DFF8F807B0F9220079
S3151FFF05446084DFF8F007B0F92400A084DFF8E4071E
S3151FFF0554B0F92600E084DFF8DC07B0F92800208510
S3151FFF0564DFF8D007B0F92A006085DFF8C807B0F9AE
S3151FFF05742C00A085DFF8BC07B0F92E00E085DFF855
S3151FFF0584B407B0F930002086DFF8A807B0F93200A8
S3151FFF05946086DFF8A007B0F93400A086DFF894075A
S3151FFF05A4B0F93600E086DFF88C07B0F938002087EC
S3151FFF05B4DFF88007B0F93A006087DFF87807B0F9EC
S3151FFF05C43C00A087DFF86C07B0F93E00E087DFF831
S3151FFF05D46407B0F94000A4F84000DFF85807B0F9E4
S3151FFF05E44200A4F84200DFF84C07B0F94400A4F810
S3151FFF05F44400DFF84007B0F94600A4F84600DFF8C9
S3151FFF06043407B0F94800A4F84800DFF82807B0F903
S3151FFF06144A00A4F84A00DFF81C07B0F94C00A4F8F7
S3151FFF06244C00DFF81007B0F94E00A4F84E00DFF8B0
S3151FFF06340407B0F95000A4F85000DFF8F806B0F924
S3151FFF06445200A4F8520010BD10B50400B4F90000FF
S3151FFF0654012190FBF1F0DFF8E0160870B4F90200F0
S3151FFF06640A2190FBF1F001F0FBF9DFF8D0160860C1
S3151FFF0674B4F904000A2190FBF1F001F0F1F9DFF858
S3151FFF0684C0160860B4F906000A2190FBF1F001F0C9
S3151FFF0694E7F9DFF8B0160860B4F908000A2190FBE2
S3151FFF06A4F1F001F0DDF9DFF8A0160860B4F90A00CE
S3151FFF06B4642190FBF1F001F0D3F9DFF8901608607F
S3151FFF06C4B4F90C00012190FBF1F0DFF884160870D2
S3151FFF06D4B4F90E00012190FBF1F0DFF878160860DC
S3151FFF06E4B4F91000012190FBF1F0DFF86C160860D6
S3151FFF06F4B4F91200012190FBF1F0DFF860160870C0
S3151FFF0704B4F914000A2190FBF1F001F0A9F9DFF8FF
S3151FFF071450160860B4F916000B2190FBF1F001F097
S3151FFF07249FF9DFF840160860B4F91800012190FB02
S3151FFF0734F1F001F095F9DFF830160860B4F91A00E5
S3151FFF0744012190FBF1F0DFF824160880B4F91C0091
S3151FFF0754012190FBF1F0DFF818160880B4F91E008B
S3151FFF0764012190FBF1F0DFF80C160870B4F9200095
S3151FFF0774012190FBF1F0DFF800160880B4F922007F
S3151FFF07844FF47A7190FBF1F0DFF8EC150880B4F99A
S3151FFF07942400012190FBF1F0DFF8DC150880B4F982
S3151FFF07A42600012190FBF1F0DFF8CC150880B4F980
S3151FFF07B42800012190FBF1F0DFF8BC150880B4F97E
S3151FFF07C42A00012190FBF1F0DFF8AC150880B4F97C
S3151FFF07D42C00012190FBF1F0DFF89C150880B4F97A
S3151FFF07E42E00012190FBF1F0DFF88C150880B4F978
S3151FFF07F43000012190FBF1F0DFF87C150880B4F976
S3151FFF08043200012190FBF1F0DFF86C150880B4F973
S3151FFF08143400012190FBF1F0DFF85C150880B4F971
S3151FFF08243600012190FBF1F0DFF84C150880B4F96F
S3151FFF08343800012190FBF1F0DFF83C150880B4F96D
S3151FFF08443A00012190FBF1F0DFF82C150880B4F96B
S3151FFF08543C00012190FBF1F0DFF81C150880B4F969
S3151FFF08643E00012190FBF1F0DFF80C150880B4F967
S3151FFF08744000012190FBF1F0DFF8FC140880B4F966
S3151FFF08844200012190FBF1F0DFF8EC140880B4F964
S3151FFF08944400012190FBF1F0DFF8DC140880B4F962
S3151FFF08A44600012190FBF1F0DFF8CC140880B4F960
S3151FFF08B44800012190FBF1F0DFF8BC140880B4F95E
S3151FFF08C44A00012190FBF1F0DFF8AC140880B4F95C
S3151FFF08D44C00012190FBF1F0DFF89C140880B4F95A
S3151FFF08E44E00012190FBF1F0DFF88C14088010BD38
S3151FFF08F4704710B504002000FFF7FAFF2088DFF8C2
S3151FFF0904341408806088DFF82C144880A088DFF829
S3151FFF091424148880E088DFF81C14C8802089DFF838
S3151FFF0924141408816089DFF80C144881A089DFF845
S3151FFF093404148881E089DFF8FC13C881208ADFF855
S3151FFF0944F4130882608ADFF8EC134882A08ADFF863
S3151FFF0954E4138882E08ADFF8DC13C882208BDFF872
S3151FFF0964D4130883608BDFF8CC134883A08BDFF87F
S3151FFF0974C4138883E08BDFF8BC13C883208CDFF88E
S3151FFF0984B4130884608CDFF8AC134884A08CDFF89B
S3151FFF0994A4138884E08CDFF89C13C884208DDFF8AA
S3151FFF09A494130885608DDFF88C134885A08DDFF8B7
S3151FFF09B484138885E08DDFF87C13C885208EDFF8C6
S3151FFF09C474130886608EDFF86C134886A08EDFF8D3
S3151FFF09D464138886E08EDFF85C13C886208FDFF8E2
S3151FFF09E454130887608FDFF84C134887A08FD149AC
S3151FFF09F48887E08FCF49C887B4F84000CD49A1F84F
S3151FFF0A044000B4F84200CB49A1F84200B4F84400B1
S3151FFF0A14C849A1F84400B4F84600C649A1F84600E0
S3151FFF0A24B4F84800C349A1F84800B4F84A00C149BD
S3151FFF0A34A1F84A00B4F84C00BE49A1F84C00B4F81B
S3151FFF0A444E00BC49A1F84E00B4F85000B949A1F8AD
S3151FFF0A5450004FF68570B749A1F8520000F0F2FF18
S3151FFF0A6410BD80B5B0F950107B2967D06421018072
S3151FFF0A740A2141800F2181800F21C1800F2101810E
S3151FFF0A84962141810121818140F6B831C18140F20E
S3151FFF0A94EE210182042141824FF4FA51818243F2EE
S3151FFF0AA49031C1824FF4FA710183192141830F21BA
S3151FFF0AB481830A21C183042101844FF47A714184FE
S3151FFF0AC4452181845421C1847FF052010185002170
S3151FFF0AD44185002181850021C185002101860021D1
S3151FFF0AE44186002181860021C186002101870021BD
S3151FFF0AF44187002181870021C1870021A0F840106B
S3151FFF0B040021A0F842100021A0F844100021A0F8EC
S3151FFF0B1446100021A0F848100021A0F84A10002112
S3151FFF0B24A0F84C100021A0F84E107FF07A01A0F810
S3151FFF0B3452107B21A0F85010FFF7DBFE01BD38B51D
S3151FFF0B44012400250020002001F06FF80023002256
S3151FFF0B5400210A2001F01EFE884A02211E2001F0F1
S3151FFF0B64C0F9002301220421282001F013FE0023CC
S3151FFF0B7406220621282001F00DFEFFE76DB2002D88
S3151FFF0B8413D1FFF75AFC40B20128F7D00CD3032821
S3151FFF0B9407D002D3042801D006E0EFE7641C012522
S3151FFF0BA4ECE709240125E9E7E8E72000C0B232BDD7
S3151FFF0BB4F8B504000825002600200027002001F0B1
S3151FFF0BC434F86F4A0021042001F08BF9FFE776B250
S3151FFF0BD4002E22D17FB2012F05D16A4A002104209C
S3151FFF0BE401F07FF90027FFF728FC40B20128EED05A
S3151FFF0BF412D3032808D003D3052808D001D30BE04B
S3151FFF0C04E5E76D1C0126E2E76D1E0126DFE72000DF
S3151FFF0C14FFF76FFE0127DAE7D9E72800C0B2F2BD57
S3151FFF0C24F8B504000725002600200127002000F041
S3151FFF0C34FCFF554A00210A2001F053F9FFE776B25C
S3151FFF0C44002E45D17FB2002F14D0B4F952007B2852
S3151FFF0C5405D136A20421322001F043F909E0B4F984
S3151FFF0C64520010F17B0F04D131A20421322001F06F
S3151FFF0C7438F90027FFF7E1FB40B20128DFD026D35F
S3151FFF0C84032808D003D3052808D001D31FE0D6E7CE
S3151FFF0C946D1C0126D3E76D1E0126D0E7B4F952005A
S3151FFF0CA47B2804D17FF07A00A4F8520007E0B4F939
S3151FFF0CB4520010F17B0F02D17B20A4F852002000B3
S3151FFF0CC4FFF717FE2000FFF7BFFC0127B7E7B6E7BD
S3151FFF0CD42800C0B2F2BD38B5092400250020002024
S3151FFF0CE400F0A3FF294A0021042001F0FAF8FFE7C9
S3151FFF0CF46DB2002D17D1FFF7A0FB40B20128F7D025
S3151FFF0D0410D3032808D003D3052808D001D309E03D
S3151FFF0D14EEE701240125EBE7641E0125E8E700241E
S3151FFF0D240125E5E7E4E72000C0B232BD594553006C
S3151FFF0D344E4F2000CC780020597E002034570020C8
S3151FFF0D443857002060570020645700207C78002006
S3151FFF0D54577E002050570020705700205D7E0020CD
S3151FFF0D643C5700204057002044570020107E002088
S3151FFF0D74127E00205C7E0020487E0020F8B7FF1FEE
S3151FFF0D84D0B6FF1FE0B6FF1FD8B5FF1FF0B6FF1F74
S3151FFF0D942DE9FF4FADB001250126002700205FF087
S3151FFF0DA400082E98B0F90000ADF8000030980088AF
S3151FFF0DB4ADF802003B980088ADF804003D98008803
S3151FFF0DC4ADF806003F980088ADF8080041980088E3
S3151FFF0DD4ADF80A00DDF80C91B9F80000ADF80C0068
S3151FFF0DE4DDF814A1BAF80000ADF80E002D9904A87A
S3151FFF0DF401F0CAFD2F9909A801F0C6FD3A990EA85D
S3151FFF0E0401F0C2FD3C9913A801F0BEFD3E9918A837
S3151FFF0E1401F0BAFD40991DA801F0B6FD429922A81B
S3151FFF0E2401F0B2FDDDF810B1594627A801F0ACFD5C
S3151FFF0E34002000F0FAFE04AA0021002001F017F893
S3151FFF0E44BDF9002000213C2001F0F1F809AA012178
S3151FFF0E54002001F00CF8BDF9022001213C2001F00E
S3151FFF0E64E6F80EAA0221002001F001F8BDF90420BD
S3151FFF0E7402213C2001F0DBF813AA0321002000F016
S3151FFF0E84F6FFBDF9062003213C2001F0D0F818AA6E
S3151FFF0E940421002000F0EBFFBDF9082004213C20AC
S3151FFF0EA401F0C5F81DAA0521002000F0E0FFBDF9DA
S3151FFF0EB40A2005213C2001F0BAF822AA06210020A8
S3151FFF0EC400F0D5FFBDF90C2006213C2001F0AFF839
S3151FFF0ED427AA0721002000F0CAFFBDF90E2007210C
S3151FFF0EE43C2001F0A4F804A86DB2142115FB01F1EF
S3151FFF0EF40844B0F11402691EC9B2002001F04CFB6D
S3151FFF0F04469C0DE0082504A86DB2142115FB01F1BB
S3151FFF0F140844B0F11402691EC9B2002001F03CFB5C
S3151FFF0F247FB2002F40F08581FFF787FA4FFA88F8C3
S3151FFF0F34B8F1000F62D140B2012807D05DD3032851
S3151FFF0F4437D015D305283AD036D356E004A86DB249
S3151FFF0F54142115FB01F10844B0F11402691EC9B22D
S3151FFF0F64002000F084FF6DB2022DCBDB6D1ECAE796
S3151FFF0F7404A86DB2142115FB01F10844B0F1140244
S3151FFF0F84691EC9B2002000F072FF6DB2082D01DA87
S3151FFF0F946D1C00E0012504A86DB2142115FB01F198
S3151FFF0FA40844B0F11402691EC9B2002001F0F4FA15
S3151FFF0FB4B6E7641E0127B3E7641C0127B0E704A83D
S3151FFF0FC46DB2142115FB01F10844B0F11402691E19
S3151FFF0FD4C9B2002000F04BFF012633005BB26846FF
S3151FFF0FE46DB200EB450030F9022C691EC9B23C20D5
S3151FFF0FF401F00EFB5FF0010892E791E74FFA88F8BD
S3151FFF1004B8F1010F8CD140B2012832D0C0F0108144
S3151FFF1014032806D0C0F08F80052800F0EE8014D376
S3151FFF102406E176B2022E01DB761E00E005263300AB
S3151FFF10345BB268466DB200EB450030F9022C691EA0
S3151FFF1044C9B23C2001F0E4FA6AE776B2052E01DA4B
S3151FFF1054761C00E0012633005BB268466DB200EBD7
S3151FFF1064450030F9022C691EC9B23C2001F0D0FAA3
S3151FFF107456E776B2012E07D04FD3032E23D013D3B1
S3151FFF1084052E3CD02DD348E068466DB200EB4500D4
S3151FFF109430F8020C00F51C50103069466DB201EB97
S3151FFF10A4450121F8020C38E068466DB200EB450096
S3151FFF10B430F8020C10F57A7069466DB201EB4501E3
S3151FFF10C421F8020C29E068466DB200EB450030F8A3
S3151FFF10D4020C643069466DB201EB450121F8020C1F
S3151FFF10E41BE068466DB200EB450030F8020C0A3070
S3151FFF10F469466DB201EB450121F8020C0DE0684606
S3151FFF11046DB200EB450030F8020C401C69466DB208
S3151FFF111401EB450121F8020CFFE733005BB268467A
S3151FFF11246DB200EB450030F9022C691EC9B23C2093
S3151FFF113401F06EFAF4E676B2012E07D04FD3032ED3
S3151FFF114423D013D3052E3CD02DD348E068466DB26A
S3151FFF115400EB450030F8020C42F21071401A694643
S3151FFF11646DB201EB450121F8020C38E068466DB2FA
S3151FFF117400EB450030F8020CB0F57A7069466DB284
S3151FFF118401EB450121F8020C29E068466DB200EB1D
S3151FFF1194450030F8020C643869466DB201EB450110
S3151FFF11A421F8020C1BE068466DB200EB450030F8D0
S3151FFF11B4020C0A3869466DB201EB450121F8020C90
S3151FFF11C40DE068466DB200EB450030F8020C401E79
S3151FFF11D469466DB201EB450121F8020CFFE73300A7
S3151FFF11E45BB268466DB200EB450030F9022C691EEF
S3151FFF11F4C9B23C2001F00CFA92E668466DB200EBC9
S3151FFF1204450030F9022C691EC9B23C2000F00FFFBE
S3151FFF121404A86DB2142115FB01F10844B0F11402A1
S3151FFF1224691EC9B2002001F0B7F95FF0000877E61F
S3151FFF123476E6BDF800002E990880BDF802003099A6
S3151FFF12440880BDF804003B990880BDF806003D9948
S3151FFF12540880BDF808003F990880BDF80A00419928
S3151FFF12640880BDF80C00A9F80000BDF80E00AAF807
S3151FFF1274000004A92D9801F087FB09A92F9801F0F7
S3151FFF128483FB0EA93A9801F07FFB13A93C9801F043
S3151FFF12947BFB18A93E9801F077FB1DA9409801F027
S3151FFF12A473FB22A9429801F06FFB27A9584601F049
S3151FFF12B46BFB2000C0B231B0BDE8F08F2DE9FF4FA5
S3151FFF12C497B001250126002700205FF00008189814
S3151FFF12D4B0F90000ADF800001A980088ADF80200B7
S3151FFF12E4DDF89490B9F80000ADF80400DDF89CA072
S3151FFF12F4BAF80000ADF80600179902A801F044FBDF
S3151FFF1304199907A801F040FB24990CA801F03CFB8F
S3151FFF1314DDF898B0594611A801F036FB002000F0FE
S3151FFF132484FC02AA0021002000F0DBFDBDF900208A
S3151FFF13340021502000F0F6FE07AA0221002000F02C
S3151FFF1344D0FDBDF902200221502000F0EBFE0CAAAE
S3151FFF13540421002000F0C5FDBDF9042004215020FF
S3151FFF136400F0E0FE11AA0621002000F0BAFDBDF928
S3151FFF137406200621502000F0D5FE02A86DB21421C7
S3151FFF138415FB01F10844B0F11402681EC0B24100F7
S3151FFF1394C9B2002000F0F6FD289C0FE0042502A821
S3151FFF13A46DB2142115FB01F10844B0F11402681E36
S3151FFF13B4C0B24100C9B2002000F0E4FD7FB2002F86
S3151FFF13C440F09B81FFF739F84FFA88F8B8F1000F01
S3151FFF13D46CD140B2012807D067D303283DD017D35A
S3151FFF13E4052840D03CD360E002A86DB2142115FB3B
S3151FFF13F401F10844B0F11402681EC0B24100C9B21C
S3151FFF1404002000F06EFD6DB2022DC7DB6D1EC6E711
S3151FFF141402A86DB2142115FB01F10844B0F11402A1
S3151FFF1424681EC0B24100C9B2002000F05AFD6DB25A
S3151FFF1434042D01DA6D1C00E0012502A86DB21421EB
S3151FFF144415FB01F10844B0F11402681EC0B2410036
S3151FFF1454C9B2002000F096FDB0E7641E0127ADE771
S3151FFF1464641C0127AAE702A86DB2142115FB01F11B
S3151FFF14740844B0F11402681EC0B24100C9B200206D
S3151FFF148400F02FFD012633005BB268466DB200EBF9
S3151FFF1494450030F9022C681EC0B24100C9B2502064
S3151FFF14A400F0B7FE5FF0010888E787E74FFA88F871
S3151FFF14B4B8F1010F82D140B2012836D0C0F01C818A
S3151FFF14C4032806D0C0F09580052800F0F68016D3B2
S3151FFF14D412E176B2022E01DB761E00E005263300EB
S3151FFF14E45BB268466DB200EB450030F9022C681EED
S3151FFF14F4C0B24100C9B2502000F08BFE5EE776B240
S3151FFF1504052E01DA761C00E0012633005BB268461E
S3151FFF15146DB200EB450030F9022C681EC0B24100C4
S3151FFF1524C9B2502000F075FE48E776B2012E07D0E8
S3151FFF15344FD3032E23D013D3052E3CD02DD348E0F0
S3151FFF154468466DB200EB450030F8020C00F51C50DF
S3151FFF1554103069466DB201EB450121F8020C38E0E4
S3151FFF156468466DB200EB450030F8020C10F57A7031
S3151FFF157469466DB201EB450121F8020C29E0684665
S3151FFF15846DB200EB450030F8020C643069466DB24C
S3151FFF159401EB450121F8020C1BE068466DB200EB17
S3151FFF15A4450030F8020C0A3069466DB201EB45015E
S3151FFF15B421F8020C0DE068466DB200EB450030F8CA
S3151FFF15C4020C401C69466DB201EB450121F8020C62
S3151FFF15D4FFE733005BB268466DB200EB450030F997
S3151FFF15E4022C681EC0B24100C9B2502000F011FE82
S3151FFF15F4E4E676B2012E07D04FD3032E23D013D39F
S3151FFF1604052E3CD02DD348E068466DB200EB45004E
S3151FFF161430F8020C42F21071401A69466DB201EBA3
S3151FFF1624450121F8020C38E068466DB200EB450010
S3151FFF163430F8020CB0F57A7069466DB201EB4501BD
S3151FFF164421F8020C29E068466DB200EB450030F81D
S3151FFF1654020C643869466DB201EB450121F8020C91
S3151FFF16641BE068466DB200EB450030F8020C0A38E2
S3151FFF167469466DB201EB450121F8020C0DE0684680
S3151FFF16846DB200EB450030F8020C401E69466DB281
S3151FFF169401EB450121F8020CFFE733005BB26846F5
S3151FFF16A46DB200EB450030F9022C681EC0B2410033
S3151FFF16B4C9B2502000F0ADFD80E668466DB200EB5F
S3151FFF16C4450030F9022C681EC0B24100C9B2502032
S3151FFF16D400F028FD02A86DB2142115FB01F1084481
S3151FFF16E4B0F11402681EC0B24100C9B2002000F057
S3151FFF16F449FC5FF0000861E660E6BDF80000189933
S3151FFF17040880BDF802001A990880BDF80400A9F8DD
S3151FFF17140000BDF80600AAF8000002A9179801F0F9
S3151FFF172433F907A9199801F02FF90CA9249801F089
S3151FFF17342BF911A9584601F027F92000C0B21BB097
S3151FFF1744BDE8F08F80B5FFF7FAF902BD00B585B086
S3151FFF175402210491811D0391DFF8E4110291011DFA
S3151FFF17640191DFF8E0110091831CDFF8DC210100F2
S3151FFF1774DFF8D801FFF7A2FD05B000BD00B585B0A0
S3151FFF17840321049110F10E010391DFF8C411029195
S3151FFF179410F10C010191DFF8BC11009110F10A033E
S3151FFF17A4DFF8B42110F10801DFF8B001FFF786FD5A
S3151FFF17B405B000BD00B585B00421049110F11601D3
S3151FFF17C40391DFF89C11029110F114010191DFF8C7
S3151FFF17D49411009110F11203DFF88C2110F11001FF
S3151FFF17E46248FFF76BFD05B000BD00B585B0052147
S3151FFF17F4049110F11E0103915D49029110F11C0121
S3151FFF180401915C49009110F11A035B4A10F118010B
S3151FFF18145A48FFF753FD05B000BD00B58DB006212D
S3151FFF18240C9110F12E010B9155490A9110F12C01C0
S3151FFF183409915349089110F12A01079150490691BD
S3151FFF184410F1280105914E49049110F126010391C8
S3151FFF18544B49029110F1240101914949009110F15D
S3151FFF18642203474A10F120014548FFF791FA0DB0AD
S3151FFF187400BD80B5FFF7D4F902BD80B5FFF798F910
S3151FFF188402BD80B5FFF727FA02BD00B595B001204B
S3151FFF189472B66846FEF7F7FD6846FFF7E2F80120C2
S3151FFF18A401E0FFF74FFFC0B2002830D0C0B20128B6
S3151FFF18B4F7D02BD303280ED009D3052813D00ED365
S3151FFF18C4072818D013D309281DD018D31EE068463E
S3151FFF18D4FFF73CFFE7E76846FFF750FFE3E7684676
S3151FFF18E4FFF768FFDFE76846FFF77FFFDBE768461B
S3151FFF18F4FFF793FFD7E76846FFF7BBFFD3E76846B4
S3151FFF1904FFF7BBFFCFE7FFF7BCFFCCE7CBE7002013
S3151FFF191400F08BF91B486946542201F047F86846C5
S3151FFF1924FEF792FE62B615B000BD80B51548FEF7E9
S3151FFF1934AAFD1448FFF795F81248FEF785FE01BD69
S3151FFF1944BCB8FF1FB4B8FF1FACB8FF1FA4B8FF1F57
S3151FFF1954DCB8FF1FD4B8FF1FCCB8FF1FC4B8FF1FC7
S3151FFF1964F4B8FF1F04B8FF1FECB8FF1FE4B8FF1F2F
S3151FFF197414B9FF1F0CB9FF1F04B9FF1FFCB8FF1FC4
S3151FFF19841CB9FF1FA47D002080B50023002201215F
S3151FFF1994204801F037F8002300224FF480711D48B9
S3151FFF19A401F030F80023002280211A4801F02AF89B
S3151FFF19B4002300224021174801F024F800230022A8
S3151FFF19C44FF40071134801F01DF801BD80B50921BD
S3151FFF19D4104801F0CDF8002801D1042018E0082192
S3151FFF19E40C4801F0C5F8002801D1012010E007219A
S3151FFF19F4084801F0BDF8002801D1022008E00021A4
S3151FFF1A04044801F0B5F8002801D1052000E00020A5
S3151FFF1A1402BD000080F00F4080B501F0FFF801BD45
S3151FFF1A24002000215FF4FF20002107E0C9B230F830
S3151FFF1A3411200A4BC9B223F81120491CC9B26429C4
S3151FFF1A44F4DB704780B55FF4FF2001F014F9C82259
S3151FFF1A5402495FF4FF2001F058F901BDCC7800203D
S3151FFF1A64002840F10980F446404200F005F850F083
S3151FFF1A7400406047002800BF0AD0B0FA80F18840B3
S3151FFF1A84D1F19D01C905020672F1004241EB1020F7
S3151FFF1A947047000080B5DFF8AC1A002005E000226E
S3151FFF1AA44A7001228A70C91C401CC0B20428F6DB87
S3151FFF1AB4DFF8941A84B06846142200F077FF0FBC30
S3151FFF1AC400F0D8FF00220C21DFF8800A01F044F84A
S3151FFF1AD4DFF87C1A84B06846142200F067FF0FBC38
S3151FFF1AE400F0C8FF00220B21DFF8600A01F034F86B
S3151FFF1AF4DFF8601A84B06846142200F057FF0FBC44
S3151FFF1B0400F0B8FF00220821DFF8400A01F024F88D
S3151FFF1B14DFF8441A84B06846142200F047FF0FBC4F
S3151FFF1B2400F0A8FF00220921DFF8200A01F014F8AC
S3151FFF1B3401BD000038B50400082501220821DFF87E
S3151FFF1B440C0A01F009F800220C21DFF8000A01F044
S3151FFF1B5403F813E000220B21DFF8F00900F0FCFF66
S3151FFF1B6401220C21DFF8E40900F0F6FF00BF002273
S3151FFF1B740C21DFF8D80900F0EFFF64002800451E8B
S3151FFF1B84C0B2002808D02006E4D501220B21DFF8B6
S3151FFF1B94BC0900F0E1FFE3E731BD000038B50400DF
S3151FFF1BA4082500220821DFF8A40900F0D5FF00222B
S3151FFF1BB40C21DFF8980900F0CFFF13E000220B2159
S3151FFF1BC4DFF8880900F0C8FF01220C21DFF87C0922
S3151FFF1BD400F0C2FF00BF00220C21DFF8700900F0DE
S3151FFF1BE4BBFF64002800451EC0B2002808D020068C
S3151FFF1BF4E4D501220B21DFF8540900F0ADFFE3E71B
S3151FFF1C0431BD10B50400B1F15000C0B2FFF7C6FFD6
S3151FFF1C142000C0B2000950F01000C0B2FFF7BEFF8C
S3151FFF1C2414F00F00FFF7BAFF10BD70B504000025AF
S3151FFF1C3408E02000C0B2FFF77DFF761CF6B2802EA8
S3151FFF1C44F7DB6D1CEDB2082D01DA0026F6E770BD32
S3151FFF1C5480B550F0A600C0B2FFF7A0FF01BD80B547
S3151FFF1C6450F0A400C0B2FFF799FF01BD10B50400E1
S3151FFF1C74DB20FFF793FF2000C0B2FFF78FFF10BDD6
S3151FFF1C8410B50400D920FFF789FF2000C0B2FFF764
S3151FFF1C9485FF10BD10B504008120FFF77FFF2000CD
S3151FFF1CA4C0B2FFF77BFF10BD10B50400DA20FFF7A4
S3151FFF1CB475FF54F00200C0B2FFF770FF10BD80B569
S3151FFF1CC450F0C000C0B2FFF769FF01BD80B550F0E9
S3151FFF1CD4A000C0B2FFF762FF01BD10B504002020AC
S3151FFF1CE4FFF75CFF2000C0B2FFF758FF10BD10B50A
S3151FFF1CF404008D20FFF752FF54F01000C0B2FFF708
S3151FFF1D044DFF10BD80B550F04000C0B2FFF746FF30
S3151FFF1D1401BD10B50400D320FFF740FF2000C0B25A
S3151FFF1D24FFF73CFF10BD10B50400A820FFF736FFD1
S3151FFF1D342000C0B2FFF732FF10BD10B50400D52037
S3151FFF1D44FFF72CFF2000C0B2FFF728FF10BD80B599
S3151FFF1D5450F0AE00C0B2FFF721FF01BD38B5140026
S3151FFF1D64C0B27B2801DB0020491CC9B2C0B2FFF7F2
S3151FFF1D7448FF00250BE0DFF88C08E4B2062101FBC0
S3151FFF1D8404F10844EDB2405DFFF7D4FE6D1CEDB2BE
S3151FFF1D94062DF0DB31BDF8B506000F001500F6B2B0
S3151FFF1DA47B2E01DB00267F1C3900C9B23000C0B26F
S3151FFF1DB4FFF727FF002409E0DFF84C08EDB22901DE
S3151FFF1DC40844E4B2005DFFF7B5FE641CE4B2082CB9
S3151FFF1DD4F2DB791CC9B23000C0B2FFF712FF082429
S3151FFF1DE409E0DFF82408EDB229010844E4B2005DD7
S3151FFF1DF4FFF7A0FE641CE4B2102CF2DBF1BDF8B5AD
S3151FFF1E0404000D001700E4B27B2C01DB00246D1CBC
S3151FFF1E142900C9B22000C0B2FFF7F3FE00260BE06C
S3151FFF1E24DFF8E407FFB239010844F6B2805DC04309
S3151FFF1E34C0B2FFF77FFE761CF6B2082EF0DB691CD5
S3151FFF1E44C9B22000C0B2FFF7DCFE08260BE0DFF89D
S3151FFF1E54B807FFB239010844F6B2805DC043C0B26A
S3151FFF1E64FFF768FE761CF6B2102EF0DBF1BD2DE9E7
S3151FFF1E74F84304000D001600DFF8900700780128C9
S3151FFF1E842DD0002716E0DFF87C075FFA89F90621B4
S3151FFF1E9401FB09F108445FFA88F810F80800FFF7F9
S3151FFF1EA449FE18F101085FFA88F8B8F1060FEADB55
S3151FFF1EB4A41D7F1CFFB2F05D002810D0FFB216F8D9
S3151FFF1EC40790E4B27B2C01DB00246D1C2900C9B2E9
S3151FFF1ED42000C0B2FFF795FE5FF00008E3E7BDE8F9
S3151FFF1EE4F1832DE9F84304000D001600002715E0C2
S3151FFF1EF4DFF814075FFA89F95FEA091108445FFAE5
S3151FFF1F0488F810F80800FFF715FE18F101085FFAA5
S3151FFF1F1488F8B8F1100FEBDB08347F1CFFB2F05DB6
S3151FFF1F2400282DD0FFB216F80790E4B2792C01DBF7
S3151FFF1F340024AD1C2900C9B22000C0B2FFF761FE01
S3151FFF1F445FF000080EE0DFF8C0065FFA89F95FEA63
S3151FFF1F54091108445FFA88F810F80800FFF7EAFD2D
S3151FFF1F6418F101085FFA88F8B8F1080FEBDB691C53
S3151FFF1F74C9B22000C0B2FFF744FE5FF00808C6E7E8
S3151FFF1F84BDE8F1832DE9F84304000D001600002771
S3151FFF1F9417E0DFF874065FFA89F95FEA0911084447
S3151FFF1FA45FFA88F810F80800C043C0B2FFF7C2FDF6
S3151FFF1FB418F101085FFA88F8B8F1100FE9DB083446
S3151FFF1FC47F1CFFB2F05D00282FD0FFB216F80790D3
S3151FFF1FD4E4B2792C01DB0024AD1C2900C9B2200011
S3151FFF1FE4C0B2FFF70EFE5FF0000810E0DFF8180619
S3151FFF1FF45FFA89F95FEA091108445FFA88F810F84E
S3151FFF20040800C043C0B2FFF795FD18F101085FFA38
S3151FFF201488F8B8F1080FE9DB691CC9B22000C0B202
S3151FFF2024FFF7EFFD5FF00808C4E7BDE8F1832DE96D
S3151FFF2034F84304000D001700DFF8D00500780128C8
S3151FFF20446ED03FB2002F09D52D222900C9B2200019
S3151FFF2054C0B2FFF783FE3FB27F4207E02B22290060
S3151FFF2064C9B22000C0B2FFF779FEBFB2BFB242F2B8
S3151FFF2074107097FBF0F0BFB242F2107197FBF1F2AB
S3151FFF208401FB12714FF47A7291FBF2F6BFB24FF452
S3151FFF20947A7197FBF1F201FB1271642291FBF2F83D
S3151FFF20A4BFB2642197FBF1F201FB12710A2291FB66
S3151FFF20B4F2F9BFB20A2197FBF1F201FB127710F176
S3151FFF20C43002D2B22900C9B2A01DC0B2FFF746FE25
S3151FFF20D416F13002D2B22900C9B214F10C00C0B2F4
S3151FFF20E4FFF73CFE18F13002D2B22900C9B214F130
S3151FFF20F41200C0B2FFF732FE19F13002D2B2290025
S3151FFF2104C9B214F11800C0B2FFF728FE17F1300247
S3151FFF2114D2B22900C9B214F11E00C0B2FFF71EFEC8
S3151FFF2124BDE8F1832DE9F84304000D0017003FB204
S3151FFF2134002F09D52D222900C9B22000C0B2FFF7EF
S3151FFF21442AFE3FB27F4207E02B222900C9B2200095
S3151FFF2154C0B2FFF720FEBFB2BFB242F2107097FBA9
S3151FFF2164F0F0BFB242F2107197FBF1F201FB12714D
S3151FFF21744FF47A7291FBF2F6BFB24FF47A7197FB63
S3151FFF2184F1F201FB1271642291FBF2F8BFB26421D3
S3151FFF219497FBF1F201FB12710A2291FBF2F9BFB20F
S3151FFF21A40A2197FBF1F201FB127710F13002D2B22B
S3151FFF21B42900C9B214F10800C0B2FFF7ECFD16F1EE
S3151FFF21C43002D2B22900C9B214F11000C0B2FFF710
S3151FFF21D4E2FD18F13002D2B22900C9B214F1180078
S3151FFF21E4C0B2FFF7D8FD19F13002D2B22900C9B226
S3151FFF21F414F12000C0B2FFF7CEFD17F13002D2B2A1
S3151FFF22042900C9B214F12800C0B2FFF7C4FDBDE807
S3151FFF2214F1832DE9F84F04000D0093461E000FFAB4
S3151FFF22248BFBBBF1000F0BD52D222900C9B2200052
S3151FFF2234C0B2FFF7B0FD0FFA8BFBDBF1000B08E013
S3151FFF22442B222900C9B22000C0B2FFF7A4FD1FFA33
S3151FFF22548BFB1FFA8BFB42F210709BFBF0F71FFAE7
S3151FFF22648BFB42F210709BFBF0F100FB11B04FF496
S3151FFF22747A7190FBF1F81FFA8BFB4FF47A709BFB75
S3151FFF2284F0F100FB11B0642190FBF1F91FFA8BFBF0
S3151FFF229464209BFBF0F100FB11B00A2190FBF1FABE
S3151FFF22A41FFA8BFB0A209BFBF0F100FB11BB17F1F7
S3151FFF22B43002D2B22900C9B214F10800C0B2FFF727
S3151FFF22C46AFD18F13002D2B22900C9B214F1100007
S3151FFF22D4C0B2FFF760FD19F13002D2B22900C9B2AD
S3151FFF22E414F11800C0B2FFF756FD1AF13002D2B22D
S3151FFF22F42900C9B214F12000C0B2FFF74CFD1BF130
S3151FFF23043002D2B22900C9B214F12800C0B2FFF7B6
S3151FFF231442FD76B2012E07D03DD3032E1AD00ED31C
S3151FFF2324052E2DD021D336E017F13002D2B2290064
S3151FFF2334C9B214F10800C0B2FFF761FD2BE018F113
S3151FFF23443002D2B22900C9B214F11000C0B2FFF78E
S3151FFF235456FD20E019F13002D2B22900C9B214F199
S3151FFF23641800C0B2FFF74BFD15E01AF13002D2B2C7
S3151FFF23742900C9B214F12000C0B2FFF740FD0AE0DD
S3151FFF23841BF13002D2B22900C9B214F12800C0B220
S3151FFF2394FFF735FDFFE7BDE8F18F2DE9F047040091
S3151FFF23A48A46150000275FF00008002600205FF00D
S3151FFF23B4000900210020FFF724FC1FFA8AFA5FEAAF
S3151FFF23C4DA06F6B200275FE0802019FB00F02044EF
S3151FFF23D40FFA88F8404490F88003802119FB01F116
S3151FFF23E421440FFA88F8414491F80013890151EAF1
S3151FFF23F4C010802119FB01F121440FFA88F84144CB
S3151FFF240491F8801250EA4110802119FB01F12144F2
S3151FFF24140FFA88F8414491F8001250EA01108021FF
S3151FFF242419FB01F121440FFA88F8414491F88011F1
S3151FFF243450EAC100802119FB01F121440FFA88F8E4
S3151FFF2444414491F8001150EA8100802119FB01F1E3
S3151FFF245421440FFA88F8414491F8801050EA41004D
S3151FFF2464802119FB01F121440FFA88F811F808108E
S3151FFF24740843C0B2FFF75EFB18F101080FFA88F88D
S3151FFF2484ADB2A845A0DB7F1C3800310000B209B2EC
S3151FFF2494884204DA5FEAC7095FF00008EEE7BDE882
S3151FFF24A4F08780B580224021DFF8B404FFF775FF5C
S3151FFF24B401BD000080B50020FFF7ECFA002001E004
S3151FFF24C400BF401CC0B26428FADB012209211F4842
S3151FFF24D400F042FB0020FFF73AFC8020FFF72DFC9C
S3151FFF24E43F20FFF720FC0020FFF713FC0020FFF718
S3151FFF24F409FC0420FFF7FBFB0020FFF7EEFB01207F
S3151FFF2504FFF7E4FB0820FFF7DAFB1020FFF7CCFBEE
S3151FFF2514CF20FFF7BFFBF120FFF7B2FB4020FFF7EA
S3151FFF2524A5FB0020FFF79BFB0020FFF791FB012074
S3151FFF2534FFF70DFC0020FFF778FB00210020FFF7B4
S3151FFF254460FB01BDF07C002024BAFF1F00F10F4082
S3151FFF255438BAFF1F4CBAFF1F60BAFF1F38B51400E6
S3151FFF2564C0B27B2801DB0020491CC9B2C0B2FFF7EA
S3151FFF257448FB00250CE02348E4B2062101FB04F1C6
S3151FFF25840844EDB2405DC043C0B2FFF7D3FA6D1CDA
S3151FFF2594EDB2062DEFDB31BD2DE9F84304000D0027
S3151FFF25A41600002717E017485FFA89F9062101FB72
S3151FFF25B409F108445FFA88F810F80800C043C0B24F
S3151FFF25C4FFF7B8FA18F101085FFA88F8B8F1060F92
S3151FFF25D4E9DBA41D7F1CFFB2F05D002810D0FFB2FC
S3151FFF25E416F80790E4B27B2C01DB00246D1C29002F
S3151FFF25F4C9B22000C0B2FFF704FB5FF00008E3E790
S3151FFF2604BDE8F1833498FF1FFC79FF1F5A7E002014
S3151FFF26142DE9F84F04000D0093461E000FFA8BFB9E
S3151FFF2624BBF1000F0BD52D222900C9B22000C0B262
S3151FFF2634FFF794FB0FFA8BFBDBF1000B08E02B2252
S3151FFF26442900C9B22000C0B2FFF788FB1FFA8BFB14
S3151FFF26541FFA8BFB42F210709BFBF0F71FFA8BFBE3
S3151FFF266442F210709BFBF0F100FB11B04FF47A712D
S3151FFF267490FBF1F81FFA8BFB4FF47A709BFBF0F17B
S3151FFF268400FB11B0642190FBF1F91FFA8BFB642049
S3151FFF26949BFBF0F100FB11B00A2190FBF1FA1FFA25
S3151FFF26A48BFB0A209BFBF0F100FB11BB17F13002DA
S3151FFF26B4D2B22900C9B2A01DC0B2FFF74FFB18F152
S3151FFF26C43002D2B22900C9B214F10C00C0B2FFF70F
S3151FFF26D445FB19F13002D2B22900C9B214F1120017
S3151FFF26E4C0B2FFF73BFB1AF13002D2B22900C9B2BF
S3151FFF26F414F11800C0B2FFF731FB1BF13002D2B23F
S3151FFF27042900C9B214F11E00C0B2FFF727FB76B228
S3151FFF2714012E07D03CD3032E19D00DD3052E2CD053
S3151FFF272420D335E017F13002D2B22900C9B2A01D5A
S3151FFF2734C0B2FFF713FF2BE018F13002D2B2290004
S3151FFF2744C9B214F10C00C0B2FFF708FF20E019F15C
S3151FFF27543002D2B22900C9B214F11200C0B2FFF778
S3151FFF2764FDFE15E01AF13002D2B22900C9B214F1E7
S3151FFF27741800C0B2FFF7F2FE0AE01BF13002D2B215
S3151FFF27842900C9B214F11E00C0B2FFF7E7FEFFE727
S3151FFF2794BDE8F18F2DE9F84304000D005FF0000833
S3151FFF27A45FF00009002700270026D2B2002A09D0AE
S3151FFF27B4022A0DD009D3042A10D00CD3062A13D00C
S3151FFF27C40FD314E00027052611E0062708260EE07F
S3151FFF27D409270A260BE00B270C2608E00D270E26D2
S3151FFF27E405E00F27102602E011271326FFE7DBB2AA
S3151FFF27F4002B41D114E05B485FFA89F95FEA49115F
S3151FFF280408445FFA88F810F80800FFF793F918F1E0
S3151FFF281401085FFA88F8B8F1200FECDB10347F1C30
S3151FFF28243000390080B289B288426ED3B946290077
S3151FFF2834C9B22000C0B2FFF7E4F95FF000080DE04C
S3151FFF284448485FFA89F95FEA491108445FFA88F82D
S3151FFF285410F80800FFF76EF918F101085FFA88F8F8
S3151FFF2864B8F1100FECDB691CC9B22000C0B2FFF729
S3151FFF2874C8F95FF01008CCE7DBB2012B45D116E090
S3151FFF288438485FFA89F95FEA491108445FFA88F8FD
S3151FFF289410F80800C043C0B2FFF74CF918F101083E
S3151FFF28A45FFA88F8B8F1200FEADB10347F1C30007B
S3151FFF28B4390080B289B2884227D3B9462900C9B2E3
S3151FFF28C42000C0B2FFF79DF95FF000080FE025480F
S3151FFF28D45FFA89F95FEA491108445FFA88F810F825
S3151FFF28E40800C043C0B2FFF725F918F101085FFAC4
S3151FFF28F488F8B8F1100FEADB691CC9B22000C0B211
S3151FFF2904FFF77FF95FF01008CAE7BDE8F18338B513
S3151FFF291400240025D2B2012A01D17D2505E0D2B2BA
S3151FFF2924002A01D1782500E03F25C0B27B2801DBB1
S3151FFF29340020491CC9B2C0B2FFF763F900240AE09D
S3151FFF29440948EDB2062101FB05F10844E4B2005D17
S3151FFF2954FFF7F0F8641CE4B2062CF1DB31BD00006F
S3151FFF29647C580020289BFF1F3498FF1F0021002837
S3151FFF297402D1002007E0491C0200501C92F90020D7
S3151FFF2984002AF8D10800704702000B0000280CD05C
S3151FFF299400290AD003E0197811705B1C521C93F9A6
S3151FFF29A400100029F7D1002111707047103A07D381
S3151FFF29B430B4B1E83810103AA0E83810F9D230BC59
S3151FFF29C4530724BFB1E80810A0E8081044BF51F805
S3151FFF29D4043B40F8043BD20724BF31F8022B20F8EF
S3151FFF29E4022B44BF0B7803707047083A07D3B1E82D
S3151FFF29F40810083A40F8043B40F804CBF7D25307B4
S3151FFF2A04E4E7000080B5D2B2002A02D0012A17D00C
S3151FFF2A142CE0174A106016484160002014490873BA
S3151FFF2A24002013494873002011498860104984B058
S3151FFF2A3468461422FFF7BAFF0FBC00F01BF815E018
S3151FFF2A440B4A10600A484160012009490873084868
S3151FFF2A544373002006498860054984B068461422DB
S3151FFF2A64FFF7A4FF0FBC00F005F8FFE701BD00BF8A
S3151FFF2A74947900200FB42DE9F8430A9850F4807413
S3151FFF2A84089F099D9DF82C809DF82D900C9E5148FB
S3151FFF2A94874203D33521504800F0B6F95FFA88F809
S3151FFF2AA4B8F1020F03DB36214B4800F0ADF95FFA8D
S3151FFF2AB489F9B9F1020F03DB3721474800F0A4F95F
S3151FFF2AC44648874210D1464900205FFA88F8B8F175
S3151FFF2AD4010F25D17A692A437A615FFA89F9B9F118
S3151FFF2AE4010F1BD17D601EE03E48874202D13E493E
S3151FFF2AF40120EAE73D48874202D13D490220E4E728
S3151FFF2B043C48874202D13C490320DEE73B488742C4
S3151FFF2B1402D13B490420D8E7002019E0BD6002E03B
S3151FFF2B247A69AA437A61002207E02B00D340DB07A9
S3151FFF2B3402D5D2B241F82240521CD2B2202AF4DB6C
S3151FFF2B443100002903D02F49C0B241F8206001206C
S3151FFF2B54BDE8F2035DF814FB10B4036801248C402F
S3151FFF2B64A343D2B212FA01F11943016010BC704795
S3151FFF2B740069C84010F00100704780B521480068FE
S3151FFF2B8480475FF0FF302049086001BD80B51D48AF
S3151FFF2B94406880475FF0FF301C49086001BD80B560
S3151FFF2BA41848806880475FF0FF301949086001BDE8
S3151FFF2BB480B51448C06880475FF0FF301549086029
S3151FFF2BC401BD80B50F48006980475FF0FF3012498A
S3151FFF2BD4086001BD01F10F4064B3FF1F00F00F40F2
S3151FFF2BE40090044040F00F4000A0044080F00F40C7
S3151FFF2BF400B00440C0F00F4000C0044000F10F4076
S3151FFF2C0400D00440CC7B0020A0900440A0A0044029
S3151FFF2C14A0B00440A0C00440A0D004406F48007871
S3151FFF2C24800606D56D48007850F020006B49087062
S3151FFF2C3414E06A480078C00606D56848007850F045
S3151FFF2C4410006649087009E064480078400605D5F8
S3151FFF2C546248007850F04000604908706048006879
S3151FFF2C6430F010005E4908605E48006830F01000BF
S3151FFF2C745C490860704701000020584A1278120603
S3151FFF2C84FBD50922584B1A700A0C584B1A700A0A9D
S3151FFF2C94574B1A70574A11705049097851F08001E2
S3151FFF2CA44E4A11704D4909780906FBD54B490978D8
S3151FFF2CB4890608D54949097851F02001474A1170F9
S3151FFF2CC450F001001FE045490978C90608D5434955
S3151FFF2CD4097851F01001414A117050F0020012E0B9
S3151FFF2CE43E490978490608D53C49097851F0400100
S3151FFF2CF43A4A117050F0080005E038490978C907A8
S3151FFF2D0401D550F00400C0B2704730B4130000223F
S3151FFF2D14002B01D111205FE05B1E9B085B1C2F4C10
S3151FFF2D2424782406FBD5002B54D0D2B2002A51D1C6
S3151FFF2D3406242D4D2C70040C2C4D2C70040A2C4D7F
S3151FFF2D442C702C4C2070CC782B4D2C708C782B4DE3
S3151FFF2D542C704C782A4D2C700C782A4D2C701F4CD6
S3151FFF2D64247854F080041D4D2C701C4C24782406A3
S3151FFF2D74FBD51A4C2478A40608D5184C247854F08E
S3151FFF2D842004164D2C7052F001021FE0134C2478B9
S3151FFF2D94E40608D5114C247854F010040F4D2C70FB
S3151FFF2DA452F0020212E00D4C2478640608D50B4C30
S3151FFF2DB4247854F04004094D2C7052F0080205E0A4
S3151FFF2DC4064C2478E40701D552F004025B1E091D45
S3151FFF2DD4001DA8E71000C0B230BC704700000240B8
S3151FFF2DE404F0014008F001400700024006000240BC
S3151FFF2DF405000240040002400B0002400A00024085
S3151FFF2E04090002400800024080B50A00010002487B
S3151FFF2E1400F061FAFEE700BF34B4FF1F10B50C00C4
S3151FFF2E241168012902D0022904D009E040B2516872
S3151FFF2E34884705E0916808709068401C9060FFE71B
S3151FFF2E442068401C206010BD30B41C0000230025E1
S3151FFF2E540570401C002A19D0096800290AD13021A0
S3151FFF2E6401705B1C180030BC7047303511000570AC
S3151FFF2E74401C5B1C0029F5D091FBF4F204FB1215D1
S3151FFF2E84002DF2D5E94311F13105EFE70968002952
S3151FFF2E9408D1302101705B1CE4E73735110005703B
S3151FFF2EA4401C5B1C0029DDD0B1FBF4F204FB121599
S3151FFF2EB40A2DF2D23035F1E7F8B504000D001600DE
S3151FFF2EC41F0005E03A0031003020FFF7A7FF641CFF
S3151FFF2ED4AC42F7DBF1BDF8B504000D0016001F0069
S3151FFF2EE405E03A0031002020FFF798FF641CAC422F
S3151FFF2EF4F7DBF1BD2DE9F04F8DB00500904600209D
S3151FFF2F0400900C0004E02A006946FFF787FF641C44
S3151FFF2F1494F90000002800F0DA81252811D00A2829
S3151FFF2F2404D02A006946FFF779FF09E02A0069469C
S3151FFF2F340D20FFF773FF2A0069460A20FFF76EFF6E
S3151FFF2F44E5E70026002101E056F0010600291CD102
S3151FFF2F54641C94F9000020280BD023280FD02B289C
S3151FFF2F6404D02D28F0D0302806D00BE056F00206E9
S3151FFF2F74ECE756F00406E9E756F00806E6E756F0CF
S3151FFF2F841006E3E7641E0121E0E70027002104E0A2
S3151FFF2F940A2202FB0700B0F13007002909D1641C7E
S3151FFF2FA494F900000200303A092AF1D9641E01215F
S3151FFF2FB4F3E7641C94F900002E280CD10021FFE7C8
S3151FFF2FC4002909D1641C94F9000030380928F7D960
S3151FFF2FD4641E0121F4E7641E641C94F900004C2847
S3151FFF2FE406D0682802D06C2801D002E002E001E077
S3151FFF2FF400E0641E641C94F900000100582976D072
S3151FFF3004622900F0D680632900F02781642913D033
S3151FFF3014692911D06E2900F053816F2900F0BC80F6
S3151FFF3024702900F0D380732900F02181752900F0E0
S3151FFF3034DA8078295BD066E7D8F8000018F1040810
S3151FFF304403900A23012203A904A8FFF7FDFE814665
S3151FFF305404A8484402900398002804D55FF02D0A5C
S3151FFF306419F101090FE0B00704D55FF02B0A19F117
S3151FFF3074010908E0700704D55FF0200A19F1010959
S3151FFF308401E05FF0000A5FF0000B300711D5BAF1BC
S3151FFF3094000F04D02A0069465046FFF7BFFE5FF0B4
S3151FFF30A4010B2B006A4639004846FFF705FFB94651
S3151FFF30B411E0F0070FD42B006A4639004846FFF785
S3151FFF30C40AFFBAF1000F04D02A0069465046FFF7DC
S3151FFF30D4A5FE5FF0010BBBF1000F07D1BAF1000F7D
S3151FFF30E404D02A0069465046FFF798FEA7E0D8F892
S3151FFF30F4000018F1040801901023002201A904A857
S3151FFF3104FFF7A2FE814604A8484402905FF0000B16
S3151FFF3114300715D5F0060BD52A0069463020FFF771
S3151FFF31247DFE2A0069467820FFF778FE5FF0010BC4
S3151FFF31342B006A4639004846FFF7BEFEB94619E01B
S3151FFF3144F00717D4F00601D519F102092B006A46B9
S3151FFF315439004846FFF7BFFEF0060BD52A0069461E
S3151FFF31643020FFF75BFE2A0069467820FFF756FEDD
S3151FFF31745FF0010BF0060ED5BBF1000F0BD12A0032
S3151FFF318469463020FFF74AFE2A0069467820FFF773
S3151FFF319445FE19F1020952E0D8F8000018F1040898
S3151FFF31A401900823002201A904A8FFF74DFE8146BB
S3151FFF31B425E0D8F8000018F1040801900223002225
S3151FFF31C401A904A8FFF740FE814618E0D8F80000BE
S3151FFF31D418F1040801901023002201A904A8FFF780
S3151FFF31E433FE81460BE0D8F8000018F1040801905E
S3151FFF31F40A23002201A904A8FFF726FE814604A875
S3151FFF320448440290300707D52B006A4639004846C3
S3151FFF3214FFF752FEB94612E0F00710D42B006A4699
S3151FFF322439004846FFF757FE09E02A006946029808
S3151FFF323490F90000FFF7F2FD0298401E02900298D4
S3151FFF324490F900000028F0D1F00705D52B006A4638
S3151FFF325439004846FFF73FFE59E6D8F8000018F134
S3151FFF3264040840B22A006946FFF7D8FD4FE6D8F88F
S3151FFF327400A018F10408BAF1000F20D05046FFF73B
S3151FFF328475FB8146F0070ED42B006A463900484664
S3151FFF3294FFF721FE07E02A0069469AF90000FFF7A8
S3151FFF32A4BDFD1AF1010A9AF900000028F3D1F007B0
S3151FFF32B405D52B006A4639004846FFF70CFE26E65E
S3151FFF32C4D8F8000018F10408009901601FE600985A
S3151FFF32D40DB0BDE8F08F0EB400B584B00121009187
S3151FFF32E40449019105AA01006846FFF703FE04B0CE
S3151FFF32F45DF810FB2DB6FF1F80B500F023F8DFF82E
S3151FFF3304380BDFF82C1B0860DFF8282BDFF82C1B84
S3151FFF3314DFF81C0B006800F056F8DFF8200B00F0EF
S3151FFF332406F9DFF8101BDFF8140B00F07DFA00F027
S3151FFF3334BFFA00F04FFB00F0EEFC00F009FD00F0B2
S3151FFF3344C9FD01BD002000E0401C00B2402839DA48
S3151FFF3354012109E0DFF8E02A802310FB03F31A4457
S3151FFF336409B200235354491C09B27F29ECDADFF84B
S3151FFF3374C82A802310FB03F31A4409B2525C012A9D
S3151FFF3384F1D1DFF8B42A802310FB03F31A4409B2E1
S3151FFF33940A4412F8012C012A0AD0DFF89C2A80233B
S3151FFF33A410FB03F31A4409B20A445278012AD1D1F6
S3151FFF33B4DFF8842A802310FB03F31A4409B201237F
S3151FFF33C45354D0E770472DE9F84F04000D0016003C
S3151FFF33D45FF0000CA046DFF8583A1C605FF0000947
S3151FFF33E408E05FFA8CFCBCF1010F01D126F8192006
S3151FFF33F419F10109B9F1400F80F29780802303FB6E
S3151FFF340409F304EB0308B9F1010F04DA00277F2040
S3151FFF34147F2100223EE005EB490333F9023C40F6C8
S3151FFF3424FF7C634507D006EB490333F9023C40F69D
S3151FFF3434FF7C634504D100277F207F21002229E0DB
S3151FFF3444B9F1400F26DADFF8F82900210F0092465B
S3151FFF345405EB490030F9020C0A38FEF701FB524609
S3151FFF3464390000F089FE00F08BFF0700DFF8D02933
S3151FFF347400218A46934606EB490030F9020C0A30AF
S3151FFF3484FEF7EEFA5A46514600F076FE00F078FF35
S3151FFF34947F2100223B005FF0000C02E018F803C0F7
S3151FFF34A45B1C8B420BDA5FFA8CFCBCF1010FF5D167
S3151FFF34B418F803E0BEF1010FF0D125F819308B423E
S3151FFF34C410D15FFA8CFCBCF1000F04D140F6FF73D9
S3151FFF34D425F8193006E05FFA8CFCBCF1010F01D108
S3151FFF34E425F8191003005FF0000C02E018F803C05B
S3151FFF34F45B1E9A420BDA5FFA8CFCBCF1010FF5D106
S3151FFF350418F803E0BEF1010FF0D126F819309342E4
S3151FFF35147FF46EAF5FFA8CFCBCF1000F7FF461AFD3
S3151FFF352440F6FF7326F8193062E7BDE8F18F0021D5
S3151FFF353405E040F6FF72DFF80C391A80491C402953
S3151FFF354480F2B380002919D130F9112040F6FF7399
S3151FFF35549A42F3D000EB4102B2F9022040F6FF7301
S3151FFF35649A42EBD000EB4102B2F9042040F6FF73F7
S3151FFF35749A42E3D0DFF8CC28118096E0012921D1A6
S3151FFF358400EB410232F9022C40F6FF739A42D5D162
S3151FFF359430F9112040F6FF739A42CFD000EB410258
S3151FFF35A4B2F9022040F6FF739A42C7D000EB4102DD
S3151FFF35B4B2F9042040F6FF739A42BFD0DFF884287E
S3151FFF35C4118072E08A1E3C2A29D200EB410232F98E
S3151FFF35D4042C40F6FF739A42B0D100EB410232F935
S3151FFF35E4022C40F6FF739A42A8D130F9112040F6F8
S3151FFF35F4FF739A42A2D000EB4102B2F9022040F6B2
S3151FFF3604FF739A429AD000EB4102B2F9042040F6A7
S3151FFF3614FF739A4292D0DFF82C28118045E03E298A
S3151FFF362424D100EB410232F9042C40F6FF739A4270
S3151FFF363484D100EB410232F9022C40F6FF739A4202
S3151FFF36447FF47CAF30F9112040F6FF739A423FF4A3
S3151FFF365475AF00EB4102B2F9022040F6FF739A429F
S3151FFF36643FF46CAFDFF8DC2711801EE03F297FF4A0
S3151FFF367465AF00EB410232F9042C40F6FF739A4201
S3151FFF36847FF457AF00EB410232F9022C40F6FF736A
S3151FFF36949A427FF44EAF30F9112040F6FF739A42D8
S3151FFF36A43FF447AFDFF89C2711803F2105E040F623
S3151FFF36B4FF72DFF894371A80491E002900F1B38081
S3151FFF36C43F2919D130F9112040F6FF739A42F3D0DF
S3151FFF36D400EB410232F9022C40F6FF739A42EBD0FC
S3151FFF36E400EB410232F9042C40F6FF739A42E3D0F2
S3151FFF36F4DFF85407018096E03E2921D100EB4102F2
S3151FFF3704B2F9022040F6FF739A42D5D130F9112040
S3151FFF371440F6FF739A42CFD000EB410232F9022CD7
S3151FFF372440F6FF739A42C7D000EB410232F9042CCD
S3151FFF373440F6FF739A42BFD0DFF80C07018072E091
S3151FFF37448A1E3C2A29D200EB4102B2F9042040F615
S3151FFF3754FF739A42B0D100EB4102B2F9022040F641
S3151FFF3764FF739A42A8D130F9112040F6FF739A428C
S3151FFF3774A2D000EB410232F9022C40F6FF739A42A4
S3151FFF37849AD000EB410232F9042C40F6FF739A429A
S3151FFF379492D0DFF8B406018045E0012924D100EB5E
S3151FFF37A44102B2F9042040F6FF739A4284D100EB1B
S3151FFF37B44102B2F9022040F6FF739A427FF47CAFAF
S3151FFF37C430F9112040F6FF739A423FF475AF00EBB1
S3151FFF37D4410232F9022C40F6FF739A423FF46CAF53
S3151FFF37E4DFF8640601801EE000297FF465AF00EB56
S3151FFF37F44102B2F9042040F6FF739A427FF457AF92
S3151FFF380400EB4102B2F9022040F6FF739A427FF49E
S3151FFF38144EAF30F9112040F6FF739A423FF447AF7C
S3151FFF3824DFF824060180704770B4002300220124A9
S3151FFF3834DFF818562C800124DFF814562C80002439
S3151FFF384420E030F9145040F6FF76B54209D030F91F
S3151FFF385414505B19DFF8F4552D886D1CDFF8EC65E2
S3151FFF3864358031F9145040F6FF76B54209D031F948
S3151FFF387414505219DFF8D8552D886D1CDFF8D06503
S3151FFF38843580641C402CDCDBDFF8C005B0F9000073
S3151FFF3894B3FBF0F0DFF8BC150880DFF8B405B0F909
S3151FFF38A40000B2FBF0F0DFF8B015088070BC70475C
S3151FFF38B4DFF89805B0F90000DFF89415B1F9001089
S3151FFF38C4DFF89025B2F90020DFF88C35B3F9003005
S3151FFF38D409B201FA80F01BB212B2991A48430221A8
S3151FFF38E490FBF1F0DFF87415088012B202FA83F029
S3151FFF38F4022190FBF1F0DFF868150880DFF8480511
S3151FFF3904B0F90000DFF83C15B1F9001008180221C1
S3151FFF391490FBF1F0DFF84C150880DFF84005B0F98E
S3151FFF3924000000283BD1DFF83805B0F90000002856
S3151FFF393435D1DFF834050078401CDFF82C150870E5
S3151FFF3944DFF824050078DFF8241591F9001000B27B
S3151FFF395409B288420BD10120DFF814150870002025
S3151FFF3964DFF8041508700320DFF800150870DFF869
S3151FFF39740005007801282CD0DFF8F8040088DFF84B
S3151FFF3984E0140880DFF8F0040088DFF8D0140880FD
S3151FFF3994DFF8E8040088DFF8CC14088019E0DFF8A5
S3151FFF39A4C0040088DFF8CC140880DFF8B004008851
S3151FFF39B4DFF8C4140880DFF8AC040088DFF8BC14F2
S3151FFF39C408800020DFF8A81408700020DFF8981479
S3151FFF39D4087070472DE9F04F0020002100220023B5
S3151FFF39E400240025002600275FF0000C5FF0000E61
S3151FFF39F45FF00008DFF88894B9F80290DFF880A417
S3151FFF3A04AAF80090DFF87894B9F80490DFF870A449
S3151FFF3A14AAF80290DFF86894B9F80690DFF860A455
S3151FFF3A24AAF80490DFF85894B9F80890DFF850A461
S3151FFF3A34AAF80690DFF84894B9F80A90DFF840A46D
S3151FFF3A44AAF80890DFF83894B9F80C90DFF830A479
S3151FFF3A54AAF80A90DFF82894B9F80E90DFF820A485
S3151FFF3A64AAF80C90DFF8F493B9F80090DFF810A4C6
S3151FFF3A74AAF80E90DFF80C94B9F80290DFF804A4A5
S3151FFF3A84AAF80090DFF8FC93B9F80490DFF8F4A3C3
S3151FFF3A94AAF80290DFF8C093B9F80090DFF8E4A301
S3151FFF3AA4AAF80490DFF8E093B9F80290DFF8D8A3D9
S3151FFF3AB4AAF80090DFF8D093B9F80490DFF8C8A3EB
S3151FFF3AC4AAF80290DFF88C93B9F80090DFF8B8A331
S3151FFF3AD4AAF80490DFF8B493B9F80290DFF8ACA301
S3151FFF3AE4AAF80090DFF8A493B9F80490DFF89CA313
S3151FFF3AF4AAF80290DFF84C93B9F80090DFF88CA36D
S3151FFF3B04AAF80490DFF88893B9F80290DFF880A328
S3151FFF3B14AAF80090DFF87893B9F80490DFF870A33A
S3151FFF3B24AAF80290DFF82093B9F80090DFF860A394
S3151FFF3B34AAF804905FF000094BE0DFF848A34FFA99
S3151FFF3B4489F93AF919A0BAF1000F08D0DFF834A39F
S3151FFF3B544FFA89F93AF819A01AEB0707491CDFF838
S3151FFF3B6428A34FFA89F93AF919A0BAF1000F08D019
S3151FFF3B74DFF814A34FFA89F93AF819A01AEB0C0CBC
S3151FFF3B84401CDFF808A34FFA89F93AF919A040F642
S3151FFF3B94FF7BDA4508D0DFF8F4A24FFA89F93AF822
S3151FFF3BA419A01AEB0E0E521CDFF8E4A24FFA89F97D
S3151FFF3BB43AF919A040F6FF7BDA4508D0DFF8D0A201
S3151FFF3BC44FFA89F93AF819A01AEB08085B1C19F181
S3151FFF3BD401094FFA89F9B9F1030FAEDB5FF000094B
S3151FFF3BE409E0DFF89CA24FFA89F93AF919A016EBF7
S3151FFF3BF40A0619F101094FFA89F9B9F1080FF0DB22
S3151FFF3C045FF0080996FBF9F6DFF88892A9F80060BA
S3151FFF3C1449B2002904D10021DFF87C62318006E016
S3151FFF3C243FB249B297FBF1F1DFF86C62318040B2C4
S3151FFF3C34002804D10020DFF86412088007E00FFA7A
S3151FFF3C448CFC40B29CFBF0F0DFF85012088052B296
S3151FFF3C54002A04D10020DFF84812088006E00FFA75
S3151FFF3C648EFE52B29EFBF2F08D4908805BB2002B8B
S3151FFF3C7403D100208B49088006E00FFA88F85BB250
S3151FFF3C8498FBF3F087490880874840888649088050
S3151FFF3C94854880888449488072480088824988807D
S3151FFF3CA45FF0000907E080484FFA89F930F81900D9
S3151FFF3CB4451919F101094FFA89F9B9F1030FF2DB16
S3151FFF3CC42DB2032095FBF0F0784908807848408889
S3151FFF3CD477490880764880887549488060480088F8
S3151FFF3CE4734988805FF0000907E071484FFA89F925
S3151FFF3CF430F81900041919F101094FFA89F9B9F1B5
S3151FFF3D04030FF2DB24B2032094FBF0F00A30694958
S3151FFF3D140880BDE8F08F5F48B0F90000012803DA79
S3151FFF3D2404205249087012E05A48B0F900000128CE
S3151FFF3D3403DB03204D49087009E05C48B0F9000016
S3151FFF3D4440F6FF71884202D1042048490870704724
S3151FFF3D5438B55FF07E51584A11604F49B1F90010CB
S3151FFF3D644E4AB2F90020891A022291FBF2F45149F5
S3151FFF3D74B1F90010402922DB4E48B0F900004F4924
S3151FFF3D8491F900100818FDF76BFE050024B22000F9
S3151FFF3D94FDF766FE4A49096800F014FB46490968A0
S3151FFF3DA400F010FB474900F079FB0100280000F0E3
S3151FFF3DB4F3FB00F0E5FA0221434A11702AE03D495D
S3151FFF3DC4B1F90010402925DA2549B1F90010012957
S3151FFF3DD420DB3848B0F900003C4991F90010081858
S3151FFF3DE4FDF73EFE050024B22000FDF739FE3449D8
S3151FFF3DF4096800F0E7FA3049096800F0E3FA314928
S3151FFF3E0400F04CFB290000F03BFC00F0B9FA01213E
S3151FFF3E142D4A117040382E4908802648B0F90000F4
S3151FFF3E240A2802D100202A49088031BD000000005C
S3151FFF3E3478580020F85700207C5800207857002018
S3151FFF3E440000FE42287E0020267E00201E7E0020C4
S3151FFF3E54207E00201A7E00201C7E00202A7E002042
S3151FFF3E64227E0020247E0020677E00205E7E0020A7
S3151FFF3E745B7E0020447E0020427E0020467E00207B
S3151FFF3E84A87C0020B87C0020C07C0020C87C0020B2
S3151FFF3E94D07C0020327E00202E7E00202C7E002028
S3151FFF3EA4347E0020367E0020A07C0020387E002032
S3151FFF3EB4987C0020307E0020807800205D7E0020C5
S3151FFF3EC47C7800200000204139BBFF1F5C7E002049
S3151FFF3ED4187E002080B500F06AF800F008F88E48B7
S3151FFF3EE490F90000002801D100F00CFC01BD80B53C
S3151FFF3EF48A480078002822D18948007801281ED1D4
S3151FFF3F0488480078012815D187480078012803D1EE
S3151FFF3F144B2000F066FC07E083480078022803D194
S3151FFF3F247FF04A0000F05DFC00F07DFC01207A491A
S3151FFF3F34087004E000F085FC002077490870774875
S3151FFF3F440078012832D17648007801282ED175488A
S3151FFF3F540078012825D175480078012803D14B2005
S3151FFF3F6400F03FFC07E071480078022803D17FF079
S3151FFF3F744A0000F036FC6D48007800280BD16C48C8
S3151FFF3F8490F90000002806D1012069490870664888
S3151FFF3F9400786649087000F046FC01205E490870E8
S3151FFF3FA404E000F04EFC00205B49087001BD80B59C
S3151FFF3FB46048006860490968401A604908605848A4
S3151FFF3FC40078012840F0A6805C48006847F230510C
S3151FFF3FD48842C0F09F805A4890F9000000286ED18E
S3151FFF3FE45448006857490968401A57490860564894
S3151FFF3FF40068B0F5FA6F62D954480068142809DBC4
S3151FFF40045348B0F900000A2804DB5248B0F90000F0
S3151FFF40140A2854DA504890F90000002803D145486E
S3151FFF402400684E4908604C480078401C4A4908708E
S3151FFF40344048006849490968401A49490860484881
S3151FFF4044006840F6B931884237D300F0ECFB42488B
S3151FFF405490F900000B282DDB00203F490870012033
S3151FFF406437490870012000F07AFC2F480078012891
S3151FFF40740BD119203B49088000213B4800F0F0FC77
S3151FFF40840121394800F0ECFC0FE02748007802288D
S3151FFF40940BD17FF01800334908800021324800F006
S3151FFF40A4DFFC0121304800F0DBFC224800682F4962
S3151FFF40B4086002E000202849087000F0C2FB204870
S3151FFF40C490F90000012825D11A480068284908607D
S3151FFF40D42748006825490968401A26490860254864
S3151FFF40E4006842F6E161884214D3124800681549F5
S3151FFF40F4086000201F49086000201149087000212D
S3151FFF4104002000F0ADFC0121002000F0A9FC0120D6
S3151FFF411400F0F2FB01BD0000687E00200E7E00202A
S3151FFF4124587E00205B7E00205F7E002039BBFF1F69
S3151FFF4134697E00202C57002030570020A07D0020C9
S3151FFF41446B7E0020987D00209C7D00204857002011
S3151FFF4154147E0020167E00206A7E0020847D0020A8
S3151FFF4164887D0020187E002090E8FFFF8C7D0020AD
S3151FFF4174907D0020947D002010B503000C001000D5
S3151FFF4184190000F0F3FC01D2030006E0180021001A
S3151FFF419400F0ECFC01D22300FFE7180010BD2DE948
S3151FFF41A4FC4F83B00C00002C00D5002400215FF0C8
S3151FFF41B400085FF0000B5FF0000A00250022019242
S3151FFF41C45FF000090022029208E050F8212002FB4B
S3151FFF41D4018812EB0A0A02FB0299491CA142F4DB6E
S3151FFF41E4601E00FB04F0022190FBF1FB0BFB0BF09F
S3151FFF41F40190601E00FB04F06100491E484306211F
S3151FFF420490FBF1F50AFB0AF0029005FB04F00199F6
S3151FFF4214401A00282AD005FB04F00199401AFDF71E
S3151FFF42241FFC070008FB04F00AFB1B00FDF718FC25
S3151FFF4234060005FB04F00199401AFDF711FC010066
S3151FFF4244300000F02BF906003800002100F0A0FC17
S3151FFF42540AD008FB04F00AFB1B00FDF701FC39001B
S3151FFF426400F01CF9060002E0002600E00026049871
S3151FFF4274002817D0002C12D09AFBF4F0FDF7F0FBA1
S3151FFF428407009BFBF4F0FDF7EBFB310000F09AF8F8
S3151FFF42940100380000F080F90499086002E000204D
S3151FFF42A404990860DDF83880B8F1000F4BD009FB7D
S3151FFF42B404F00299401AFDF7D3FB0700300000F004
S3151FFF42C475FC82468B4605FB04F00199401AFDF7E0
S3151FFF42D4C7FB009009FB04F00299401AFDF7C0FBC8
S3151FFF42E40100009800F0DAF800F060FC00F086FC8D
S3151FFF42F452465B4600F0FAFC00F0CAFDC8F8000000
S3151FFF43043800002100F044FC1AD0300000F04EFCA8
S3151FFF431482468B4605FB04F00199401AFDF7A0FB65
S3151FFF4324390000F0BBF800F041FC00F067FC524671
S3151FFF43345B4600F0DBFC00F0ABFDC8F8000002E0B3
S3151FFF43440020C8F800000398066005B0BDE8F08F8B
S3151FFF43540023002810D00A21484308490968074A41
S3151FFF4364126802E0054A12685B1C521A824203D284
S3151FFF43747FF07F429342F5D3704700002C570020EE
S3151FFF43844100090E7F3915D4D1F11F0114D4400002
S3151FFF439407D2C00140F00040C84048BF6FF000403D
S3151FFF43A47047C00140F00040C8404CBF4FF000406B
S3151FFF43B4404270470020704700424FF0004058BFED
S3151FFF43C4C0437047FF2212EAD05C1DBF12EAD153C6
S3151FFF43D4944593422BE09C44D30780EA01021A407B
S3151FFF43E443EA002043EA0121A1FB0030410038BF05
S3151FFF43F440007CF17F010BDBFE294ADA5B0842EAA8
S3151FFF4404C15153EA006373F1004C51EB10207047FF
S3151FFF4414D1F1080CDCF120012FDB5B0810FA01F147
S3151FFF44240B4373F1004120FA0CF05041704794453A
S3151FFF44341CBF02EAD153934280EA010202F00042F3
S3151FFF44441DD0400019D0490017D05BB9634514D05E
S3151FFF44540902B1FA81F39940BCEB030CC00140F08A
S3151FFF44640040C1E70002B0FA80FC10FA0CF0B3EB70
S3151FFF44740C0CC90141F00041B6E71000704740001C
S3151FFF44840AD0490008D010F1807F94BF11F1807FB5
S3151FFF449402E042F0FF407047D043704710B5FF2339
S3151FFF44A413EAD0541DBF13EAD1529C429A4239E0F4
S3151FFF44B4A41ADA0780EA0103134042EA012142EAFA
S3151FFF44C40020421A3CBF641E01EB4202090AB2FBDB
S3151FFF44D4F1FE01FB1E221202B2FBF1F001FB1022B9
S3151FFF44E46EF30F201202B2FBF1FE4EEA00207F3459
S3151FFF44F406DDFE2C24DA53EA500050EBC45010BDE0
S3151FFF4504D4F1020401FB1E2240F08071192C1DDC1D
S3151FFF451421FA04F0C4F12004A140114371F10042B2
S3151FFF4524584110BD9C421ABF03EAD1529A420FE06B
S3151FFF453480EA010E0EF00043400004D0490016D155
S3151FFF454443F0FF4010BD490008BFD343180010BDF9
S3151FFF45549C4205D1D21AF7D001F00041484010BD45
S3151FFF45644A0212BF0846484000F0004010BD4AB930
S3151FFF45740902B1FA81F2914044B1A418C00140F077
S3151FFF458400409EE7C90141F0004152420002B0FAC2
S3151FFF459480F4A040141B94E790EA010F44BF81F0F7
S3151FFF45A4004100F075B800BF431A4FF000423EBFEB
S3151FFF45B45340C01AC91800BFD3095FEAD05C13EB77
S3151FFF45C4400F34BFB3EB410F40E07CEBD1530CD309
S3151FFF45D442EA012122D8D1EB402009D3400A28BF42
S3151FFF45E45FEA500140EBCC507047401A15D040028A
S3151FFF45F4B0FA80F2521C9040400A4FEA3C23B3EBB9
S3151FFF4604026384BF00EB730007E040F400001A1631
S3151FFF4614DB07C2F10102D04018437047182BFCDC9D
S3151FFF462431FA03F202FA03F3591A38BF42F00102B1
S3151FFF4634D2EB40203CBF4000ACF1010C5FEACC5CDF
S3151FFF4644C20572F100414CEB5020704713EB400F2C
S3151FFF46540FD24B0009D0ACEBD153022B03DB49021C
S3151FFF4664172BDDDD70479143401A4300D5D1002038
S3151FFF4674704713EB410FD0D36FF000007047000054
S3151FFF468490EA010F44BF81F00041FFF78DBF00BFC2
S3151FFF4694421A3CBF801A89184FF0004CC0F3C75209
S3151FFF46A4FF2A24D0C1F3C75313B3D21AD2F1190366
S3151FFF46B427DD4CEA01214CFA03F321EA0303D14018
S3151FFF46C4C20D4CEA0020401834BF20EA0C004CEA06
S3151FFF46D45000D20553EA006373EB0C0C52EB102008
S3151FFF46E4420012F1807F38BF7047C00DC005704767
S3151FFF46F4490212BF9A4200EB5120F8E7D2F1170382
S3151FFF4704D9D570471CB52448B0F90000FDF7A8F9A1
S3151FFF471404002248406821490860204880681F49D1
S3151FFF472448601E48C0681D4988601C4800691B49AC
S3151FFF4734C8601B482100FFF745FEFFF721FE1749F7
S3151FFF4744086100200090002301AA03211348FFF7E5
S3151FFF475426FD01981249FFF7A1FE01901148006833
S3151FFF47642100FFF72FFE0E49FFF798FE040001995C
S3151FFF47740D480068FFF726FE0949FFF78FFE210044
S3151FFF4784FFF77EFFFFF7FCFD08490860074800682F
S3151FFF479400B200F026F813BD187E0020987800207B
S3151FFF47A40000C84260570020645700206857002046
S3151FFF47B480B500F0E6FB002000F013F801BD38B505
S3151FFF47C4114A12490C00150080B2FDF753F92A004E
S3151FFF47D42100FFF7D1FCFFF7D3FD80B200F0EDFBFD
S3151FFF47E431BD80B500B210F502700949086008484B
S3151FFF47F4006880B2FFF7E3FF01BD0020044800688D
S3151FFF4804B0F5027000B2704700C014440080DE4347
S3151FFF48146C57002080B5002301225FF080610C488E
S3151FFF4824FEF7F0F801BD80B50A480078002802D1CB
S3151FFF483400F007F804E001221A210548FEF78CF958
S3151FFF484401BD80B500221A210148FEF785F901BD76
S3151FFF485400F10F40577E002080B500206C49087079
S3151FFF486464206B4948600FF2B910694908616849AA
S3151FFF487484B068461422FEF799F80FBC00F0F0FBCC
S3151FFF48840120644908700520624988600FF2991058
S3151FFF4894604908615F4984B068461422FEF786F8AB
S3151FFF48A40FBC00F0DDFB02205B49087005205A4947
S3151FFF48B4C8600FF27D1058490861574984B068468E
S3151FFF48C41422FEF773F80FBC00F0CAFB03205349EB
S3151FFF48D408700520514988600FF25D104F49086122
S3151FFF48E44E4984B068461422FEF760F80FBC00F0E9
S3151FFF48F4B7FB00F067F801BD80B5C0B2002805D02D
S3151FFF4904022817D00CD303281ED027E0404984B0B2
S3151FFF491468461422FEF74AF80FBC00F0FAFB1DE0A7
S3151FFF49243C4984B068461422FEF740F80FBC00F0DA
S3151FFF4934F0FB13E0384984B068461422FEF736F8B5
S3151FFF49440FBC00F0E6FB09E0344984B06846142225
S3151FFF4954FEF72CF80FBC00F0DCFBFFE701BD80B5AB
S3151FFF4964C0B2002805D0022817D00CD303281ED0A7
S3151FFF497427E0274984B068461422FEF717F80FBCB1
S3151FFF498400F0DAFB1DE0234984B068461422FEF7C4
S3151FFF49940DF80FBC00F0D0FB13E01F4984B0684627
S3151FFF49A41422FEF703F80FBC00F0C6FB09E01B49F0
S3151FFF49B484B068461422FDF7F9FF0FBC00F0BCFB59
S3151FFF49C4FFE701BD80B5124984B068461422FDF77F
S3151FFF49D4EDFF0FBC00F0B0FB0E4984B068461422EE
S3151FFF49E4FDF7E4FF0FBC00F0A7FB0B4984B0684635
S3151FFF49F41422FDF7DBFF0FBC00F09EFB074984B0B3
S3151FFF4A0468461422FDF7D2FF0FBC00F095FB01BDCC
S3151FFF4A14FC7C0020107D0020247D0020387D002093
S3151FFF4A2480B500F0E3FB01BD80B500F0E5FB01BDDA
S3151FFF4A3480B500F0E7FB01BD80B500F0E4FB01BDC7
S3151FFF4A4480B500F06DFA0023012204214248FDF7C9
S3151FFF4A54D9FF0023012210213F48FDF7D3FF01BDD4
S3151FFF4A6480B5C9B200291CD100B2012808DB00B2E8
S3151FFF4A7400F0AAFA002204213748FEF76DF82CE04E
S3151FFF4A8400B2002809D500B2404200F09DFA012268
S3151FFF4A9404213148FEF760F81FE0002000F094FA66
S3151FFF4AA41BE000B2012808DB00B200F0A4FA0022C3
S3151FFF4AB402212948FEF750F80FE000B2002809D556
S3151FFF4AC400B2404200F097FA012202212248FEF764
S3151FFF4AD443F802E0002000F08EFA01BD38B51F48E7
S3151FFF4AE4026869460DF1020000F0EAFC1C4A1D49E3
S3151FFF4AF40C001500BDF90200FCF7B2FF2A002100C6
S3151FFF4B04FFF73AFBFFF73CFCADF80200144A1549C1
S3151FFF4B140C001500BDF90000FCF7A2FF2A002100B7
S3151FFF4B24FFF72AFBFFF72CFCADF800000E480078B1
S3151FFF4B34002806D10020ADF80000BDF80000ADF82F
S3151FFF4B4402000021BDF90200FFF78AFF0121BDF90B
S3151FFF4B540000FFF785FF31BD80F00F40545700203B
S3151FFF4B640000FA450000FAC5587E00204FF0807CEE
S3151FFF4B741CEB400F94BF1CEB410F05E040EA010CF1
S3151FFF4B845FEA4C0C01D28842704718BF81427047B7
S3151FFF4B9440EA010C5FEA4C0C07D0884205D14FEA65
S3151FFF4BA4400C1CF1807F98BF804270475FF0FF0C5B
S3151FFF4BB41CEAD05114BF614506E0C110400721F01E
S3151FFF4BC4E04101F16051704779B900F000410002DD
S3151FFF4BD40AD0B0FA80FC00FA0CF001F16051A1EB88
S3151FFF4BE40C5101EBD0214005704741020CBF40F425
S3151FFF4BF4E0016FF0000100207047000040F2FF7CC8
S3151FFF4C040B0D4DD0634566D230B421EA035141F4EF
S3151FFF4C14801103F2FD3C5FEA5C0C01D30018494186
S3151FFF4C24890041EA907180004FF440140023E20289
S3151FFF4C34D50AB1F5100107D46D081DD2091B6419D6
S3151FFF4C4400184941491BF7D56D080AD20919641B78
S3151FFF4C5400184941491BEFD56D08F7D301E05208E8
S3151FFF4C6417D0C01861419B1AAC4100184941801ADD
S3151FFF4C74A941F4D452080AD0C01AA1419B186C410A
S3151FFF4C8400184941801AA941E9D45208F4D15B1C83
S3151FFF4C946C4161084FEA330001EB0C5130BC70477E
S3151FFF4CA450EA0103FBD030B4B1FA81F311B9B0FA5C
S3151FFF4CB480F41B190B3BB3F120042FBF00FA04F139
S3151FFF4CC49940C3F1200420FA04F438BF21439840C6
S3151FFF4CD4D3F101039DE76345E1D011F5801FDED8AC
S3151FFF4CE450EA4101DBD0D94300F0D8BCB0B581EA05
S3151FFF4CF4030C0CF0004C40F2FF7515EA11541DBF4F
S3151FFF4D0415EA1357AC42AF4239E0E41923EA455378
S3151FFF4D1443F48013C90241F0004141EA505EC702C2
S3151FFF4D241100A7FB020200284FF00000EEFB012033
S3151FFF4D344FF00001E3FB072118BF42F001024018A1
S3151FFF4D4400214941E3FB0E01A4F580640F0302D240
S3151FFF4D5452004041494154F101046CDD470872F189
S3151FFF4D64004250F1000051EB0451A1F580115CBFC5
S3151FFF4D7441EA0C01B0BD4CEA05510020B0BD05EA5E
S3151FFF4D841357AC4214BFAF4241E050EA410E1CBF5A
S3151FFF4D9452EA430E02E061460020B0BD24423C4462
S3151FFF4DA41BD15FEA070EF6D0090302BF0146002097
S3151FFF4DB4AEF1140EB1FA81F7AEEB070401FA07FE43
S3151FFF4DC40C37C7F1200100FA07F7C8404EEA000E59
S3151FFF4DD423EA455343F48013A2E733F00043B3FAA0
S3151FFF4DE483F704BFB2FA82FE77440B3FE41BB7F186
S3151FFF4DF4200E2FBF02FA0EF3BB40C7F1200E22FA75
S3151FFF4E040EFE38BF43EA0E03BA40641C82E750EA1C
S3151FFF4E14410E14BF52EA430E6FF000014FF4001701
S3151FFF4E2417EB430F8ABF194617EB410FB5E74CEA3A
S3151FFF4E3405510020B0BDD4F10104B4F120070FDAE8
S3151FFF4E44C4F12007520828BF42F0010210FA07F5E2
S3151FFF4E5401FA07F7E1BF2A43E0403843E1400FE079
S3151FFF4E64352C98DCC7F1200452EA400220FA07F2D8
S3151FFF4E7418BF42F0010231FA07F0A1400A4300218D
S3151FFF4E8472F1004250F1000051EB0C01B0BD00005E
S3151FFF4E944FEAF17CBCF1E04C2CBFBCF5001F11E0BF
S3151FFF4EA45FEA4C0C34BFBCF17F5F2EE05FEA9C0CBC
S3151FFF4EB44FEA0C1C4FEA3C0CC10071F100414CEB4D
S3151FFF4EC450707047C90241EA5051C00218BF41F0E2
S3151FFF4ED4010141F000414FEA6C50C0F1090021283E
S3151FFF4EE410D240EACC7CCCF1200C11FA0CF070F1F5
S3151FFF4EF40040CCF1200C21FA0CF00CF0004C40EBD7
S3151FFF4F040C0070474FEACC707047490011F5001F1C
S3151FFF4F1404D84FEACC10FF30C0057047C817704737
S3151FFF4F24E0B540484049086001203F49087142F2F5
S3151FFF4F3410703D4988603C4984B068461C22FDF7C2
S3151FFF4F4435FD0FBC00F0B0FB282000903D2341F236
S3151FFF4F5488320021334800F037FC002200213148F4
S3151FFF4F6400F067FC282000903F2341F2883202217C
S3151FFF4F742C4800F029FC002202212A4800F059FC84
S3151FFF4F8407BDE0B529482A49086001202849087149
S3151FFF4F94322027498860264984B068461C22FDF7BC
S3151FFF4FA405FD0FBC00F080FB28200090092300227B
S3151FFF4FB401211E4800F008FC07BD80B50200012130
S3151FFF4FC41A4800F036FC01BD38B500230300194A01
S3151FFF4FD400210C0015001800FCF74CFD2A002100C8
S3151FFF4FE4FFF7CAF801F018F803001A0000210D484D
S3151FFF4FF400F01FFC31BD38B5002303000D4A002105
S3151FFF50040C0015001800FCF735FD2A002100FFF7D9
S3151FFF5014B3F801F001F803001A000221014800F05A
S3151FFF502408FC31BD008003404C7D002000900340E7
S3151FFF5034687D002000401C46012110F01F0291408D
S3151FFF50445D4A40B2400942F820107047012110F013
S3151FFF50541F029140594A40B2400942F82010704737
S3151FFF50640FB470B5059856490968564AB1FBF2F154
S3151FFF5074069A534B1B68534CB3FBF4F35A434FF433
S3151FFF50847A735A4301FB002007994D4A12684D4B09
S3151FFF5094B2FBF3F251434B4A02FB01049DF8105036
S3151FFF50A4089EEDB2042D03DB32214748FDF7ACFE04
S3151FFF50B4002C03D133214448FDF7A6FE434800685D
S3151FFF50C450F4000041490860002041490860300040
S3151FFF50D4002809D03F48EDB240F8256002203E491B
S3151FFF50E4EDB22A0111448860601E3B49EDB22A01C5
S3151FFF50F488503948EDB229010844806850F00100F1
S3151FFF51043549EDB22A0111448860012070BC5DF850
S3151FFF511414FB0FB410B59DF80840E4B2042C03DB4F
S3151FFF512476212948FDF770FE14F1440040B2FFF7BC
S3151FFF513483FF10BC5DF814FB0FB410B59DF8084030
S3151FFF5144E4B2042C03DB8C211F48FDF75DFE14F12B
S3151FFF5154440040B2FFF77AFF10BC5DF814FB80B51D
S3151FFF51641C48006880471D48006850F001001B4912
S3151FFF5174086001BD80B51748406880471848006816
S3151FFF518450F001001649086001BD80B511488068BB
S3151FFF519480471448006850F001001249086001BD9A
S3151FFF51A480B50C48C06880470F48006850F001005F
S3151FFF51B40D49086001BD000000E100E080E100E049
S3151FFF51C418BAFF1F40420F0000B4FF1F3C80044064
S3151FFF51D400700340F47B0020007103400C710340F1
S3151FFF51E41C7103402C7103403C7103402A4800681D
S3151FFF51F4401C29490860704780B500F057F800F036
S3151FFF5204A7FF01BD7047704710B440B220280EDABE
S3151FFF521440B22021214A1268012390FBF1F401FBBE
S3151FFF5224140013FA00F010431C49086031E040B222
S3151FFF523440280EDA40B22021194A1268012390FB37
S3151FFF5244F1F401FB140013FA00F01043144908602C
S3151FFF52541FE040B260280EDA40B22021114A1268BD
S3151FFF5264012390FBF1F401FB140013FA00F0104322
S3151FFF52740C4908600DE040B220210B4A1268012336
S3151FFF528490FBF1F401FB140013FA00F010430649D7
S3151FFF5294086010BC704700002C57002000E200E096
S3151FFF52A404E200E008E200E00CE200E010B5DFF8DC
S3151FFF52B460030068DFF85C130880DFF8580304886F
S3151FFF52C400F067F8201ADFF84C130880DFF8440351
S3151FFF52D4048800F0AFF8201ADFF83813088000F0AF
S3151FFF52E4C0F8DFF834030068B92802DAB920C949C0
S3151FFF52F40880C8480088C8490968401AC7490880F2
S3151FFF5304C6480088C6490988401AC6490880C34843
S3151FFF5314B0F90000FCF7A4FBC3490968FFF752F86D
S3151FFF5324C249FFF7BBF80400BE48B0F90000FCF7FB
S3151FFF533497FBBF490968FFF745F8BC49FFF7AEF866
S3151FFF53442100FFF79DF9FFF71BF8BA490880BA48F2
S3151FFF53540068B849B1F900104018B7490860B64844
S3151FFF5364006842F21171884204DB42F21070B2499F
S3151FFF5374086007E0B048006810F5FA6F02DAAF4815
S3151FFF5384AD490860A5480088A5490880FFF7A6FB15
S3151FFF539410BD80B50020AA49B1F90010002900D518
S3151FFF53A44942A84AB2F90020914214DBA64AB2F930
S3151FFF53B400208A420FDBA348B0F90000081AFCF746
S3151FFF53C44FFBA2490968FEF7FDFF9849FFF766F8E9
S3151FFF53D4FEF7D6FF2DE09C4AB2F900208A420FDA68
S3151FFF53E49848B0F90000081AFCF73AFB9749096871
S3151FFF53F4FEF7E8FF9649FFF751F8FEF7C1FF18E0DE
S3151FFF5404904AB2F90020914213DA924AB2F9002068
S3151FFF54140B2A0EDB8B48B0F90000081AFCF720FB9A
S3151FFF54248D490968FEF7CEFF8049FFF737F8FEF768
S3151FFF5434A7FF02BD38B58948006889480468002C50
S3151FFF544400D56442874800688749FFF727F8050098
S3151FFF54542000FCF705FB2900FEF7B4FFFEF790FFBC
S3151FFF546432BD10B500F0FEFEFEF78AFF7F490880A6
S3151FFF547400F054FFFEF784FF7D4908807B48B0F98F
S3151FFF548400007B49B1F900100818022190FBF1F0C7
S3151FFF5494784908807748B0F900005F490860764865
S3151FFF54A404687448B0F9000000F0BEFF0022734B76
S3151FFF54B4FFF71CFC00F0CEFF00196F49086010BDF3
S3151FFF54C42DE9F84F81460C00150000260021002701
S3151FFF54D45FF000080020FFF790F9002D03D1002786
S3151FFF54E45FF000088EE000B210F10A01152902D2FF
S3151FFF54F42F00A84686E000B210F10A0F42DA00B267
S3151FFF55044042002100E0491C0F290DDA5C4A52F87C
S3151FFF5514212000B28242F6DA594A02EB810252680F
S3151FFF552400B28242EFDB4E1C0F2900DB0F26280039
S3151FFF553400F07AFF82468B46524850F82600FFF743
S3151FFF554435FB514A514B00F0ABFF52465B46FFF703
S3151FFF5554CDFB00F07FFF0700280000F065FF8246A2
S3151FFF55648B464B4850F82600FFF720FB494A4A4B08
S3151FFF557400F096FF52465B46FFF7B8FB00F06AFF43
S3151FFF558480463FE0002100E0491C0F290DDA3C4A03
S3151FFF559452F8212000B28242F6DA394A02EB81021F
S3151FFF55A4526800B28242EFDB4E1C0F2900DB0F2627
S3151FFF55B4280000F039FF82468B46324850F82600F2
S3151FFF55C4FFF7F4FA304A314B00F06AFF52465B4647
S3151FFF55D4FFF78CFB00F03EFF8046280000F024FFF8
S3151FFF55E482468B462A4850F82600FFF7DFFA294AD8
S3151FFF55F4294B00F055FF52465B46FFF777FB00F03A
S3151FFF560429FF0700A9F80070A4F80080BDE8F18FF1
S3151FFF5614505700204A7E002048570020507E002006
S3151FFF56244C7E00204E7E0020345700200000C842C7
S3151FFF563438570020527E00205457002030F8FFFFB2
S3151FFF5644327E0020107E0020127E0020405700204D
S3151FFF56540000A042307E0020445700206C570020D4
S3151FFF5664685700203C57002000007A44147E002010
S3151FFF5674167E0020547E00204C5700200000E03F7A
S3151FFF568474BAFF1FF4BAFF1FEC51B81E85EBA13F77
S3151FFF5694B4BAFF1FFA7E6ABC749388BF1FB500F0A6
S3151FFF56A473FF212101601FBD0FB43EB59DF81C007A
S3151FFF56B40F21084204D13521DFF86408FDF7A4FB47
S3151FFF56C40698DFF86018884217D10025DFF85808B7
S3151FFF56D4006850F08070DFF8501808609DF81C00B2
S3151FFF56E4C0072AD506A984B068461C22FDF75EF9B2
S3151FFF56F40FBC00F0E4F804004BE00698DFF82C1803
